{
  "contractName": "Dev",
  "abi": [
    {
      "inputs": [
        {
          "name": "_addr",
          "type": "address"
        }
      ],
      "payable": false,
      "stateMutability": "nonpayable",
      "type": "function",
      "constant": false,
      "name": "addAddress",
      "outputs": []
    },
    {
      "payable": false,
      "stateMutability": "nonpayable",
      "type": "function",
      "constant": false,
      "inputs": [],
      "name": "getAddresses",
      "outputs": [
        {
          "name": "",
          "type": "address[]"
        }
      ]
    },
    {
      "inputs": [],
      "payable": false,
      "stateMutability": "view",
      "type": "function",
      "constant": true,
      "name": "getLength",
      "outputs": [
        {
          "name": "",
          "type": "uint256"
        }
      ]
    },
    {
      "payable": false,
      "stateMutability": "nonpayable",
      "type": "constructor",
      "inputs": []
    },
    {
      "payable": true,
      "stateMutability": "payable",
      "type": "fallback"
    }
  ],
  "bytecode": "0x6060604052341561000f57600080fd5b33600160006101000a81548173ffffffffffffffffffffffffffffffffffffffff021916908373ffffffffffffffffffffffffffffffffffffffff1602179055506103008061005f6000396000f300606060405260043610610057576000357c0100000000000000000000000000000000000000000000000000000000900463ffffffff16806338eada1c1461009c578063a39fac12146100d5578063be1c766b1461013f575b346000803373ffffffffffffffffffffffffffffffffffffffff1673ffffffffffffffffffffffffffffffffffffffff16815260200190815260200160002081905550005b34156100a757600080fd5b6100d3600480803573ffffffffffffffffffffffffffffffffffffffff16906020019091905050610168565b005b34156100e057600080fd5b6100e86101ce565b6040518080602001828103825283818151815260200191508051906020019060200280838360005b8381101561012b578082015181840152602081019050610110565b505050509050019250505060405180910390f35b341561014a57600080fd5b610152610262565b6040518082815260200191505060405180910390f35b6002805480600101828161017c919061026f565b9160005260206000209001600083909190916101000a81548173ffffffffffffffffffffffffffffffffffffffff021916908373ffffffffffffffffffffffffffffffffffffffff1602179055505050565b6101d661029b565b600280548060200260200160405190810160405280929190818152602001828054801561025857602002820191906000526020600020905b8160009054906101000a900473ffffffffffffffffffffffffffffffffffffffff1673ffffffffffffffffffffffffffffffffffffffff168152602001906001019080831161020e575b5050505050905090565b6000600280549050905090565b8154818355818115116102965781836000526020600020918201910161029591906102af565b5b505050565b602060405190810160405280600081525090565b6102d191905b808211156102cd5760008160009055506001016102b5565b5090565b905600a165627a7a7230582051771459bbb501cccbde4d03f824c97884a88e6b95073388d47aa1260cc1dd770029",
  "source": "pragma solidity ^0.4.9;\r\n\r\n// This document is part of the Lunyr coding challenge. If you would like to participate\r\n// please email support át lunyr döt cōm with a description of any bugs you find in this contract\r\n// including what the function should do, what it actually does, what are the consequences\r\n// of the bug (how to abuse it), and how to fix it. Happy Hacking\r\n// RTFM: https://solidity.readthedocs.io/en/develop/\r\n\r\n// (ʘ‿ʘ)(ʘ‿ʘ)(ʘ‿ʘ)\r\n\r\n// THIS CONTRACT CONTAINS BUGS - DO NOT USE\r\n\r\n// Bugs found thus far: '0xa8a0d322b1e77575afb8d9dd79859d876b199c6c',\r\n\r\n// 1. var used instead of uint; All addresses stored after the 255th will be have their ether sent to the original 255 addresses when dispense() is called.\r\n// 2. Re-entrancy: Withdraw sends ether before detecting a failure, a contract can be designed to recursively call withdraw()\r\n// 3. tx.origin walks all the way up the call stack to find the originating owner of the transaction; a vulnerable user could interact with a malicious contract that then \r\n//    calls addShareholder however many times they want.\r\ncontract Dev {\r\n\r\n\r\n    /// Mapping of ether shares of the contract.\r\n    mapping(address => uint) shares;\r\n    address owner;\r\n    address[] shareholders;\r\n\r\n    function Dev() {\r\n        owner = msg.sender;\r\n    }\r\n\r\n    function () payable {\r\n        shares[msg.sender] = msg.value;\r\n    }\r\n\r\n    function addAddress(address _addr) {\r\n        shareholders.push(_addr);\r\n    }\r\n\r\n    function getLength() constant returns (uint) {\r\n        return shareholders.length;\r\n    }\r\n\r\n    function getAddresses() external returns (address[]) {\r\n        return shareholders;\r\n    }\r\n\r\n}",
  "sourcePath": "C:\\Sites\\eth\\ethemy\\contracts\\Dev.sol",
  "compiler": {
    "name": "solc",
    "version": "0.4.18+commit.9cf6e910.Emscripten.clang"
  },
  "schemaVersion": "1.0.1",
  "updatedAt": "2017-11-04T22:08:48.514Z"
}