{
  "contractName": "Dev",
  "abi": [
    {
      "inputs": [
        {
          "name": "_addr",
          "type": "address"
        }
      ],
      "payable": false,
      "stateMutability": "nonpayable",
      "type": "function",
      "constant": false,
      "name": "dispense",
      "outputs": []
    },
    {
      "payable": false,
      "stateMutability": "nonpayable",
      "type": "function",
      "constant": false,
      "inputs": [
        {
          "name": "_addr",
          "type": "address"
        }
      ],
      "name": "addAddress",
      "outputs": [
        {
          "name": "",
          "type": "address[]"
        }
      ]
    },
    {
      "inputs": [],
      "payable": false,
      "stateMutability": "nonpayable",
      "type": "function",
      "constant": false,
      "name": "withdraw",
      "outputs": [
        {
          "name": "",
          "type": "uint256"
        }
      ]
    },
    {
      "payable": false,
      "stateMutability": "nonpayable",
      "type": "function",
      "inputs": [
        {
          "name": "_addr",
          "type": "address"
        }
      ],
      "constant": false,
      "name": "kill",
      "outputs": [
        {
          "name": "",
          "type": "uint256"
        }
      ]
    },
    {
      "payable": false,
      "stateMutability": "nonpayable",
      "type": "function",
      "inputs": [],
      "constant": false,
      "name": "withdrawAll",
      "outputs": []
    },
    {
      "payable": false,
      "stateMutability": "nonpayable",
      "type": "function",
      "constant": false,
      "inputs": [],
      "name": "getAddresses",
      "outputs": [
        {
          "name": "",
          "type": "address[]"
        }
      ]
    },
    {
      "constant": true,
      "inputs": [],
      "name": "getLength",
      "outputs": [
        {
          "name": "",
          "type": "uint256"
        }
      ],
      "payable": false,
      "stateMutability": "view",
      "type": "function"
    },
    {
      "constant": false,
      "inputs": [
        {
          "name": "_addr",
          "type": "address"
        }
      ],
      "name": "getShares",
      "outputs": [
        {
          "name": "",
          "type": "uint256"
        }
      ],
      "payable": false,
      "stateMutability": "nonpayable",
      "type": "function"
    },
    {
      "inputs": [],
      "payable": false,
      "stateMutability": "nonpayable",
      "type": "constructor"
    },
    {
      "payable": true,
      "stateMutability": "payable",
      "type": "fallback"
    },
    {
      "anonymous": false,
      "inputs": [
        {
          "indexed": false,
          "name": "",
          "type": "address"
        },
        {
          "indexed": false,
          "name": "",
          "type": "uint256"
        }
      ],
      "name": "FailedSend",
      "type": "event"
    },
    {
      "anonymous": false,
      "inputs": [
        {
          "indexed": false,
          "name": "",
          "type": "bytes32"
        }
      ],
      "name": "FailedAddShareholder",
      "type": "event"
    }
  ],
  "bytecode": "0x6060604052341561000f57600080fd5b33600160006101000a81548173ffffffffffffffffffffffffffffffffffffffff021916908373ffffffffffffffffffffffffffffffffffffffff160217905550610b018061005f6000396000f30060606040526004361061008e576000357c0100000000000000000000000000000000000000000000000000000000900463ffffffff1680630adb1a9a1461021157806338eada1c146102265780633ccfd60b1461025f57806341c0e1b514610274578063853828b614610289578063a39fac121461029e578063be1c766b14610308578063f04da65b14610331575b60008060003373ffffffffffffffffffffffffffffffffffffffff1673ffffffffffffffffffffffffffffffffffffffff16815260200190815260200160002054141561013d57600280548060010182816100e99190610a70565b9160005260206000209001600033909190916101000a81548173ffffffffffffffffffffffffffffffffffffffff021916908373ffffffffffffffffffffffffffffffffffffffff1602179055505061018c565b600034111561018b5760008060003373ffffffffffffffffffffffffffffffffffffffff1673ffffffffffffffffffffffffffffffffffffffff168152602001908152602001600020819055505b5b346000803373ffffffffffffffffffffffffffffffffffffffff1673ffffffffffffffffffffffffffffffffffffffff16815260200190815260200160002054016000803373ffffffffffffffffffffffffffffffffffffffff1673ffffffffffffffffffffffffffffffffffffffff16815260200190815260200160002081905550005b341561021c57600080fd5b61022461037e565b005b341561023157600080fd5b61025d600480803573ffffffffffffffffffffffffffffffffffffffff16906020019091905050610501565b005b341561026a57600080fd5b610272610672565b005b341561027f57600080fd5b610287610827565b005b341561029457600080fd5b61029c6108ba565b005b34156102a957600080fd5b6102b1610987565b6040518080602001828103825283818151815260200191508051906020019060200280838360005b838110156102f45780820151818401526020810190506102d9565b505050509050019250505060405180910390f35b341561031357600080fd5b61031b610a1b565b6040518082815260200191505060405180910390f35b341561033c57600080fd5b610368600480803573ffffffffffffffffffffffffffffffffffffffff16906020019091905050610a28565b6040518082815260200191505060405180910390f35b6000806000600160009054906101000a900473ffffffffffffffffffffffffffffffffffffffff1673ffffffffffffffffffffffffffffffffffffffff163373ffffffffffffffffffffffffffffffffffffffff161415156103df57600080fd5b600091505b6002805490508260ff1610156104fc5760028260ff1681548110151561040657fe5b906000526020600020900160009054906101000a900473ffffffffffffffffffffffffffffffffffffffff1692506000808473ffffffffffffffffffffffffffffffffffffffff1673ffffffffffffffffffffffffffffffffffffffff16815260200190815260200160002054905060008060008573ffffffffffffffffffffffffffffffffffffffff1673ffffffffffffffffffffffffffffffffffffffff168152602001908152602001600020819055508273ffffffffffffffffffffffffffffffffffffffff166108fc829081150290604051600060405180830381858888f193505050505081806001019250506103e4565b505050565b600160009054906101000a900473ffffffffffffffffffffffffffffffffffffffff1673ffffffffffffffffffffffffffffffffffffffff163373ffffffffffffffffffffffffffffffffffffffff1614151561055d57600080fd5b60fa6002805490501015610617576002805480600101828161057f9190610a70565b9160005260206000209001600083909190916101000a81548173ffffffffffffffffffffffffffffffffffffffff021916908373ffffffffffffffffffffffffffffffffffffffff1602179055505060008060008373ffffffffffffffffffffffffffffffffffffffff1673ffffffffffffffffffffffffffffffffffffffff1681526020019081526020016000208190555061066f565b7f69d0bfbda23c6e81584c56b6d155e720349c28bdc1b646d212007093abc6f5ba60405180807f4d41585f5348415245484f4c4445525300000000000000000000000000000000815250602001905060405180910390a15b50565b6000806000803373ffffffffffffffffffffffffffffffffffffffff1673ffffffffffffffffffffffffffffffffffffffff16815260200190815260200160002054111561077a576000803373ffffffffffffffffffffffffffffffffffffffff1673ffffffffffffffffffffffffffffffffffffffff16815260200190815260200160002054905060008060003373ffffffffffffffffffffffffffffffffffffffff1673ffffffffffffffffffffffffffffffffffffffff168152602001908152602001600020819055503373ffffffffffffffffffffffffffffffffffffffff166108fc829081150290604051600060405180830381858888f1935050505050610824565b7f3d14263aec0db87097e504ee7aca5316e879b2cc7f3b29f9c62d40e9bae04cee336000803373ffffffffffffffffffffffffffffffffffffffff1673ffffffffffffffffffffffffffffffffffffffff16815260200190815260200160002054604051808373ffffffffffffffffffffffffffffffffffffffff1673ffffffffffffffffffffffffffffffffffffffff1681526020018281526020019250505060405180910390a15b50565b600160009054906101000a900473ffffffffffffffffffffffffffffffffffffffff1673ffffffffffffffffffffffffffffffffffffffff163373ffffffffffffffffffffffffffffffffffffffff1614156108b857600160009054906101000a900473ffffffffffffffffffffffffffffffffffffffff1673ffffffffffffffffffffffffffffffffffffffff16ff5b565b600160009054906101000a900473ffffffffffffffffffffffffffffffffffffffff1673ffffffffffffffffffffffffffffffffffffffff163373ffffffffffffffffffffffffffffffffffffffff1614151561091657600080fd5b600160009054906101000a900473ffffffffffffffffffffffffffffffffffffffff1673ffffffffffffffffffffffffffffffffffffffff166108fc3073ffffffffffffffffffffffffffffffffffffffff16319081150290604051600060405180830381858888f1935050505050565b61098f610a9c565b6002805480602002602001604051908101604052809291908181526020018280548015610a1157602002820191906000526020600020905b8160009054906101000a900473ffffffffffffffffffffffffffffffffffffffff1673ffffffffffffffffffffffffffffffffffffffff16815260200190600101908083116109c7575b5050505050905090565b6000600280549050905090565b60008060008373ffffffffffffffffffffffffffffffffffffffff1673ffffffffffffffffffffffffffffffffffffffff168152602001908152602001600020549050919050565b815481835581811511610a9757818360005260206000209182019101610a969190610ab0565b5b505050565b602060405190810160405280600081525090565b610ad291905b80821115610ace576000816000905550600101610ab6565b5090565b905600a165627a7a72305820f02b74cedd4f61d17868a0ec74cc8c2cea199275e0cae0016a8a81bf24b96c400029",
  "source": "pragma solidity ^0.4.9;\r\n\r\n// This document is part of the Lunyr coding challenge. If you would like to participate\r\n// please email support át lunyr döt cōm with a description of any bugs you find in this contract\r\n// including what the function should do, what it actually does, what are the consequences\r\n// of the bug (how to abuse it), and how to fix it. Happy Hacking\r\n// RTFM: https://solidity.readthedocs.io/en/develop/\r\n\r\n// (ʘ‿ʘ)(ʘ‿ʘ)(ʘ‿ʘ)\r\n\r\n// THIS CONTRACT CONTAINS BUGS - DO NOT USE\r\n\r\n// Bugs found thus far: '0xa8a0d322b1e77575afb8d9dd79859d876b199c6c',\r\n\r\n// 1. var used instead of uint; All addresses stored after the 255th will be have their ether sent to the original 255 addresses when dispense() is called.\r\n// 2. Re-entrancy: Withdraw sends ether before detecting a failure, a contract can be designed to recursively call withdraw()\r\n// 3. tx.origin walks all the way up the call stack to find the originating owner of the transaction; a vulnerable user could interact with a malicious contract that then \r\n//    calls addShareholder however many times they want.\r\n// 4. Multiple payments resulted in overridden share amounts, giving the owner of the contract free eth.\r\n// 5. No suiciding the contract, meaning ether could be lost forever.\r\ncontract Dev {\r\n\r\n\r\n    // Added an upper bound to the contract with regard to shareholder addresses.\r\n    mapping(address => uint) shares;\r\n    address owner;\r\n    address[] shareholders;\r\n    uint constant MAX_SHAREHOLDERS = 250;   // Defining an upper bound on shareholder amount due to gas costs of dispense()\r\n    \r\n\r\n    event FailedSend(address, uint);\r\n\r\n    event FailedAddShareholder(bytes32);\r\n\r\n    function Dev() {\r\n        owner = msg.sender;\r\n    }\r\n\r\n    // All payments will be added to balance and share balance stored\r\n    function () payable {\r\n        // If sender is unintialized, add them to shareholders\r\n        if (shares[msg.sender] == 0) {\r\n            shareholders.push(msg.sender);\r\n        }  else if (msg.value > 0) { \r\n        // Check if sender was simply de-initialized. If they were, and they're sending money again, set them back to 0 \r\n       \r\n            shares[msg.sender] = 0;\r\n        }\r\n        // Add the sent payment to an existing balance \r\n        shares[msg.sender] = shares[msg.sender] + msg.value;\r\n    }\r\n\r\n    function kill() {\r\n        if (msg.sender == owner) {\r\n            selfdestruct(owner);\r\n        }\r\n    }\r\n\r\n    function addAddress(address _addr) {\r\n        require(msg.sender == owner);\r\n        if (shareholders.length < MAX_SHAREHOLDERS) {\r\n            shareholders.push(_addr);\r\n            shares[_addr] = 0;\r\n        } else {\r\n            FailedAddShareholder(\"MAX_SHAREHOLDERS\");\r\n        }\r\n    }\r\n\r\n    function withdraw() {\r\n        if (shares[msg.sender] > 0) {\r\n            uint sh = shares[msg.sender];\r\n            shares[msg.sender] = 0;\r\n            msg.sender.send(sh);\r\n        } else {\r\n            FailedSend(msg.sender, shares[msg.sender]);\r\n        }\r\n    }\r\n\r\n    function dispense() {\r\n        require(msg.sender == owner);\r\n        address shareholder;\r\n        for (var i = 0; i < shareholders.length; i++) { \r\n            shareholder = shareholders[i];\r\n            uint sh = shares[shareholder];\r\n            shares[shareholder] = 0;\r\n            shareholder.send(sh);\r\n        }\r\n    }\r\n\r\n    function withdrawAll() {\r\n        require(msg.sender == owner);\r\n        owner.send(this.balance); // Send all funds to the owner\r\n    }\r\n\r\n    function getLength() constant returns (uint) {\r\n        return shareholders.length;\r\n    }\r\n\r\n    function getAddresses() external returns (address[]) {\r\n        return shareholders;\r\n    }\r\n\r\n    // Return 0 if address is unintialized or simply de-initialized. Otherwise send balance\r\n    function getShares(address _addr) external returns (uint) {\r\n        return shares[_addr];\r\n    }\r\n\r\n}",
  "sourcePath": "C:\\Sites\\eth\\ethemy\\contracts\\Dev.sol",
  "compiler": {
    "name": "solc",
    "version": "0.4.18+commit.9cf6e910.Emscripten.clang"
  },
  "schemaVersion": "1.0.1",
  "updatedAt": "2017-11-05T16:21:11.294Z"
}