{
  "contractName": "Dev",
  "abi": [
    {
      "inputs": [
        {
          "name": "_addr",
          "type": "address"
        }
      ],
      "payable": false,
      "stateMutability": "nonpayable",
      "type": "function",
      "constant": false,
      "name": "dispense",
      "outputs": []
    },
    {
      "payable": false,
      "stateMutability": "nonpayable",
      "type": "function",
      "constant": false,
      "inputs": [
        {
          "name": "_addr",
          "type": "address"
        }
      ],
      "name": "addAddress",
      "outputs": [
        {
          "name": "",
          "type": "address[]"
        }
      ]
    },
    {
      "inputs": [],
      "payable": false,
      "stateMutability": "nonpayable",
      "type": "function",
      "constant": false,
      "name": "withdraw",
      "outputs": [
        {
          "name": "",
          "type": "uint256"
        }
      ]
    },
    {
      "payable": false,
      "stateMutability": "nonpayable",
      "type": "function",
      "inputs": [
        {
          "name": "_addr",
          "type": "address"
        }
      ],
      "constant": false,
      "name": "kill",
      "outputs": [
        {
          "name": "",
          "type": "uint256"
        }
      ]
    },
    {
      "payable": false,
      "stateMutability": "nonpayable",
      "type": "function",
      "inputs": [],
      "constant": false,
      "name": "withdrawAll",
      "outputs": []
    },
    {
      "payable": false,
      "stateMutability": "nonpayable",
      "type": "function",
      "constant": false,
      "inputs": [],
      "name": "getAddresses",
      "outputs": [
        {
          "name": "",
          "type": "address[]"
        }
      ]
    },
    {
      "constant": true,
      "inputs": [],
      "name": "getLength",
      "outputs": [
        {
          "name": "",
          "type": "uint256"
        }
      ],
      "payable": false,
      "stateMutability": "view",
      "type": "function"
    },
    {
      "constant": false,
      "inputs": [
        {
          "name": "_addr",
          "type": "address"
        }
      ],
      "name": "getShares",
      "outputs": [
        {
          "name": "",
          "type": "uint256"
        }
      ],
      "payable": false,
      "stateMutability": "nonpayable",
      "type": "function"
    },
    {
      "inputs": [],
      "payable": false,
      "stateMutability": "nonpayable",
      "type": "constructor"
    },
    {
      "payable": true,
      "stateMutability": "payable",
      "type": "fallback"
    },
    {
      "anonymous": false,
      "inputs": [
        {
          "indexed": false,
          "name": "",
          "type": "address"
        },
        {
          "indexed": false,
          "name": "",
          "type": "uint256"
        }
      ],
      "name": "FailedSend",
      "type": "event"
    },
    {
      "anonymous": false,
      "inputs": [
        {
          "indexed": false,
          "name": "",
          "type": "bytes32"
        }
      ],
      "name": "FailedAddShareholder",
      "type": "event"
    }
  ],
  "bytecode": "0x6060604052341561000f57600080fd5b33600160006101000a81548173ffffffffffffffffffffffffffffffffffffffff021916908373ffffffffffffffffffffffffffffffffffffffff160217905550610aae8061005f6000396000f30060606040526004361061008e576000357c0100000000000000000000000000000000000000000000000000000000900463ffffffff1680630adb1a9a146101be57806338eada1c146101d35780633ccfd60b1461020c57806341c0e1b514610221578063853828b614610236578063a39fac121461024b578063be1c766b146102b5578063f04da65b146102de575b60008060003373ffffffffffffffffffffffffffffffffffffffff1673ffffffffffffffffffffffffffffffffffffffff16815260200190815260200160002054141561013957600280548060010182816100e99190610a1d565b9160005260206000209001600033909190916101000a81548173ffffffffffffffffffffffffffffffffffffffff021916908373ffffffffffffffffffffffffffffffffffffffff160217905550505b346000803373ffffffffffffffffffffffffffffffffffffffff1673ffffffffffffffffffffffffffffffffffffffff16815260200190815260200160002054016000803373ffffffffffffffffffffffffffffffffffffffff1673ffffffffffffffffffffffffffffffffffffffff16815260200190815260200160002081905550005b34156101c957600080fd5b6101d161032b565b005b34156101de57600080fd5b61020a600480803573ffffffffffffffffffffffffffffffffffffffff169060200190919050506104ae565b005b341561021757600080fd5b61021f61061f565b005b341561022c57600080fd5b6102346107d4565b005b341561024157600080fd5b610249610867565b005b341561025657600080fd5b61025e610934565b6040518080602001828103825283818151815260200191508051906020019060200280838360005b838110156102a1578082015181840152602081019050610286565b505050509050019250505060405180910390f35b34156102c057600080fd5b6102c86109c8565b6040518082815260200191505060405180910390f35b34156102e957600080fd5b610315600480803573ffffffffffffffffffffffffffffffffffffffff169060200190919050506109d5565b6040518082815260200191505060405180910390f35b6000806000600160009054906101000a900473ffffffffffffffffffffffffffffffffffffffff1673ffffffffffffffffffffffffffffffffffffffff163373ffffffffffffffffffffffffffffffffffffffff1614151561038c57600080fd5b600091505b6002805490508260ff1610156104a95760028260ff168154811015156103b357fe5b906000526020600020900160009054906101000a900473ffffffffffffffffffffffffffffffffffffffff1692506000808473ffffffffffffffffffffffffffffffffffffffff1673ffffffffffffffffffffffffffffffffffffffff16815260200190815260200160002054905060008060008573ffffffffffffffffffffffffffffffffffffffff1673ffffffffffffffffffffffffffffffffffffffff168152602001908152602001600020819055508273ffffffffffffffffffffffffffffffffffffffff166108fc829081150290604051600060405180830381858888f19350505050508180600101925050610391565b505050565b600160009054906101000a900473ffffffffffffffffffffffffffffffffffffffff1673ffffffffffffffffffffffffffffffffffffffff163373ffffffffffffffffffffffffffffffffffffffff1614151561050a57600080fd5b60fa60028054905010156105c4576002805480600101828161052c9190610a1d565b9160005260206000209001600083909190916101000a81548173ffffffffffffffffffffffffffffffffffffffff021916908373ffffffffffffffffffffffffffffffffffffffff1602179055505060016000808373ffffffffffffffffffffffffffffffffffffffff1673ffffffffffffffffffffffffffffffffffffffff1681526020019081526020016000208190555061061c565b7f69d0bfbda23c6e81584c56b6d155e720349c28bdc1b646d212007093abc6f5ba60405180807f4d41585f5348415245484f4c4445525300000000000000000000000000000000815250602001905060405180910390a15b50565b6000806000803373ffffffffffffffffffffffffffffffffffffffff1673ffffffffffffffffffffffffffffffffffffffff168152602001908152602001600020541115610727576000803373ffffffffffffffffffffffffffffffffffffffff1673ffffffffffffffffffffffffffffffffffffffff16815260200190815260200160002054905060008060003373ffffffffffffffffffffffffffffffffffffffff1673ffffffffffffffffffffffffffffffffffffffff168152602001908152602001600020819055503373ffffffffffffffffffffffffffffffffffffffff166108fc829081150290604051600060405180830381858888f19350505050506107d1565b7f3d14263aec0db87097e504ee7aca5316e879b2cc7f3b29f9c62d40e9bae04cee336000803373ffffffffffffffffffffffffffffffffffffffff1673ffffffffffffffffffffffffffffffffffffffff16815260200190815260200160002054604051808373ffffffffffffffffffffffffffffffffffffffff1673ffffffffffffffffffffffffffffffffffffffff1681526020018281526020019250505060405180910390a15b50565b600160009054906101000a900473ffffffffffffffffffffffffffffffffffffffff1673ffffffffffffffffffffffffffffffffffffffff163373ffffffffffffffffffffffffffffffffffffffff16141561086557600160009054906101000a900473ffffffffffffffffffffffffffffffffffffffff1673ffffffffffffffffffffffffffffffffffffffff16ff5b565b600160009054906101000a900473ffffffffffffffffffffffffffffffffffffffff1673ffffffffffffffffffffffffffffffffffffffff163373ffffffffffffffffffffffffffffffffffffffff161415156108c357600080fd5b600160009054906101000a900473ffffffffffffffffffffffffffffffffffffffff1673ffffffffffffffffffffffffffffffffffffffff166108fc3073ffffffffffffffffffffffffffffffffffffffff16319081150290604051600060405180830381858888f1935050505050565b61093c610a49565b60028054806020026020016040519081016040528092919081815260200182805480156109be57602002820191906000526020600020905b8160009054906101000a900473ffffffffffffffffffffffffffffffffffffffff1673ffffffffffffffffffffffffffffffffffffffff1681526020019060010190808311610974575b5050505050905090565b6000600280549050905090565b60008060008373ffffffffffffffffffffffffffffffffffffffff1673ffffffffffffffffffffffffffffffffffffffff168152602001908152602001600020549050919050565b815481835581811511610a4457818360005260206000209182019101610a439190610a5d565b5b505050565b602060405190810160405280600081525090565b610a7f91905b80821115610a7b576000816000905550600101610a63565b5090565b905600a165627a7a72305820db94eb84d927c18135d21026c60938d5d3cb40920b79ebf2271d66a7a41f48d60029",
  "source": "pragma solidity ^0.4.9;\r\n\r\n// This document is part of the Lunyr coding challenge. If you would like to participate\r\n// please email support át lunyr döt cōm with a description of any bugs you find in this contract\r\n// including what the function should do, what it actually does, what are the consequences\r\n// of the bug (how to abuse it), and how to fix it. Happy Hacking\r\n// RTFM: https://solidity.readthedocs.io/en/develop/\r\n\r\n// (ʘ‿ʘ)(ʘ‿ʘ)(ʘ‿ʘ)\r\n\r\n// THIS CONTRACT CONTAINS BUGS - DO NOT USE\r\n\r\n// Bugs found thus far: '0xa8a0d322b1e77575afb8d9dd79859d876b199c6c',\r\n\r\n// 1. var used instead of uint; All addresses stored after the 255th will be have their ether sent to the original 255 addresses when dispense() is called.\r\n// 2. Re-entrancy: Withdraw sends ether before detecting a failure, a contract can be designed to recursively call withdraw()\r\n// 3. tx.origin walks all the way up the call stack to find the originating owner of the transaction; a vulnerable user could interact with a malicious contract that then \r\n//    calls addShareholder however many times they want.\r\n// 4. Multiple payments resulted in overridden share amounts, giving the owner of the contract free eth.\r\n// 5. No suiciding the contract, meaning ether could be lost forever.\r\ncontract Dev {\r\n\r\n\r\n    // Added an upper bound to the contract with regard to shareholder addresses.\r\n    mapping(address => uint) shares;\r\n    address owner;\r\n    address[] shareholders;\r\n    uint constant MAX_SHAREHOLDERS = 250;   // Defining an upper bound on shareholder amount due to gas costs of dispense()\r\n    \r\n\r\n    event FailedSend(address, uint);\r\n\r\n    event FailedAddShareholder(bytes32);\r\n\r\n    function Dev() {\r\n        owner = msg.sender;\r\n    }\r\n\r\n    // All payments will be added to balance and share balance stored\r\n    function () payable {\r\n        // If sender is unintialized, add them to shareholders\r\n        if (shares[msg.sender] == 0) {\r\n            shareholders.push(msg.sender);\r\n        }\r\n        // Add the sent payment to an existing balance \r\n        shares[msg.sender] = shares[msg.sender] + msg.value;\r\n    }\r\n\r\n    function kill() {\r\n        if (msg.sender == owner) {\r\n            selfdestruct(owner);\r\n        }\r\n    }\r\n\r\n    function addAddress(address _addr) {\r\n        require(msg.sender == owner);\r\n        if (shareholders.length < MAX_SHAREHOLDERS) {\r\n            shareholders.push(_addr);\r\n            shares[_addr] = 1;\r\n        } else {\r\n            FailedAddShareholder(\"MAX_SHAREHOLDERS\");\r\n        }\r\n    }\r\n\r\n    function withdraw() {\r\n        if (shares[msg.sender] > 0) {\r\n            uint sh = shares[msg.sender];\r\n            shares[msg.sender] = 0;\r\n            msg.sender.send(sh);\r\n        } else {\r\n            FailedSend(msg.sender, shares[msg.sender]);\r\n        }\r\n    }\r\n\r\n    function dispense() {\r\n        require(msg.sender == owner);\r\n        address shareholder;\r\n        for (var i = 0; i < shareholders.length; i++) { \r\n            shareholder = shareholders[i];\r\n            uint sh = shares[shareholder];\r\n            shares[shareholder] = 0;\r\n            shareholder.send(sh);\r\n        }\r\n    }\r\n\r\n    function withdrawAll() {\r\n        require(msg.sender == owner);\r\n        owner.send(this.balance); // Send all funds to the owner\r\n    }\r\n\r\n    function getLength() constant returns (uint) {\r\n        return shareholders.length;\r\n    }\r\n\r\n    function getAddresses() external returns (address[]) {\r\n        return shareholders;\r\n    }\r\n\r\n    // Return 0 if address is unintialized or simply de-initialized. Otherwise send balance\r\n    function getShares(address _addr) external returns (uint) {\r\n        return shares[_addr];\r\n    }\r\n\r\n}",
  "sourcePath": "C:\\Sites\\eth\\ethemy\\contracts\\Dev.sol",
  "compiler": {
    "name": "solc",
    "version": "0.4.18+commit.9cf6e910.Emscripten.clang"
  },
  "schemaVersion": "1.0.1",
  "updatedAt": "2017-11-05T19:02:32.169Z"
}