{
  "contractName": "Ethemy",
  "abi": [
    {
      "constant": false,
      "inputs": [],
      "name": "dispense",
      "outputs": [],
      "payable": false,
      "stateMutability": "nonpayable",
      "type": "function"
    },
    {
      "constant": false,
      "inputs": [],
      "name": "withdraw",
      "outputs": [],
      "payable": false,
      "stateMutability": "nonpayable",
      "type": "function"
    },
    {
      "constant": true,
      "inputs": [
        {
          "name": "",
          "type": "uint256"
        }
      ],
      "name": "getLength",
      "outputs": [
        {
          "name": "",
          "type": "uint256"
        }
      ],
      "payable": false,
      "stateMutability": "view",
      "type": "function"
    },
    {
      "inputs": [
        {
          "name": "shareholder",
          "type": "address"
        }
      ],
      "payable": false,
      "stateMutability": "nonpayable",
      "type": "function",
      "constant": false,
      "name": "addShareholder",
      "outputs": [
        {
          "name": "",
          "type": "address"
        }
      ]
    },
    {
      "payable": false,
      "stateMutability": "nonpayable",
      "type": "constructor",
      "constant": true,
      "inputs": [
        {
          "name": "",
          "type": "address"
        }
      ],
      "name": "shares",
      "outputs": [
        {
          "name": "",
          "type": "uint256"
        }
      ]
    },
    {
      "anonymous": false,
      "inputs": [
        {
          "indexed": false,
          "name": "shareholder",
          "type": "address"
        },
        {
          "indexed": false,
          "name": "",
          "type": "uint256"
        }
      ],
      "name": "addShareholder",
      "type": "fallback",
      "payable": true,
      "stateMutability": "payable",
      "constant": false,
      "outputs": []
    },
    {
      "payable": false,
      "stateMutability": "nonpayable",
      "type": "event",
      "inputs": [
        {
          "indexed": false,
          "name": "",
          "type": "address"
        },
        {
          "indexed": false,
          "name": "",
          "type": "uint256"
        }
      ],
      "anonymous": false,
      "name": "FailedSend"
    },
    {
      "anonymous": false,
      "inputs": [
        {
          "indexed": false,
          "name": "_value",
          "type": "uint256"
        },
        {
          "indexed": false,
          "name": "",
          "type": "uint256"
        }
      ],
      "name": "ShareholderLength",
      "type": "event",
      "payable": true,
      "stateMutability": "payable"
    },
    {
      "anonymous": false,
      "inputs": [
        {
          "indexed": false,
          "name": "",
          "type": "address"
        },
        {
          "indexed": false,
          "name": "",
          "type": "uint256"
        }
      ],
      "name": "FailedSend",
      "type": "event"
    }
  ],
  "bytecode": "0x6060604052341561000f57600080fd5b33600160006101000a81548173ffffffffffffffffffffffffffffffffffffffff021916908373ffffffffffffffffffffffffffffffffffffffff16021790555061056f8061005f6000396000f300606060405260043610610062576000357c0100000000000000000000000000000000000000000000000000000000900463ffffffff1680630adb1a9a146100a75780633ccfd60b146100bc578063be1c766b146100d1578063db29fe12146100fa575b346000803373ffffffffffffffffffffffffffffffffffffffff1673ffffffffffffffffffffffffffffffffffffffff16815260200190815260200160002081905550005b34156100b257600080fd5b6100ba610133565b005b34156100c757600080fd5b6100cf6102b6565b005b34156100dc57600080fd5b6100e4610423565b6040518082815260200191505060405180910390f35b341561010557600080fd5b610131600480803573ffffffffffffffffffffffffffffffffffffffff16906020019091905050610430565b005b6000806000600160009054906101000a900473ffffffffffffffffffffffffffffffffffffffff1673ffffffffffffffffffffffffffffffffffffffff163373ffffffffffffffffffffffffffffffffffffffff1614151561019457600080fd5b600091505b6002805490508260ff1610156102b15760028260ff168154811015156101bb57fe5b906000526020600020900160009054906101000a900473ffffffffffffffffffffffffffffffffffffffff1692506000808473ffffffffffffffffffffffffffffffffffffffff1673ffffffffffffffffffffffffffffffffffffffff16815260200190815260200160002054905060008060008573ffffffffffffffffffffffffffffffffffffffff1673ffffffffffffffffffffffffffffffffffffffff168152602001908152602001600020819055508273ffffffffffffffffffffffffffffffffffffffff166108fc829081150290604051600060405180830381858888f19350505050508180600101925050610199565b505050565b3373ffffffffffffffffffffffffffffffffffffffff166108fc6000803373ffffffffffffffffffffffffffffffffffffffff1673ffffffffffffffffffffffffffffffffffffffff168152602001908152602001600020549081150290604051600060405180830381858888f19350505050156103775760008060003373ffffffffffffffffffffffffffffffffffffffff1673ffffffffffffffffffffffffffffffffffffffff16815260200190815260200160002081905550610421565b7f3d14263aec0db87097e504ee7aca5316e879b2cc7f3b29f9c62d40e9bae04cee336000803373ffffffffffffffffffffffffffffffffffffffff1673ffffffffffffffffffffffffffffffffffffffff16815260200190815260200160002054604051808373ffffffffffffffffffffffffffffffffffffffff1673ffffffffffffffffffffffffffffffffffffffff1681526020018281526020019250505060405180910390a15b565b6000600280549050905090565b600160009054906101000a900473ffffffffffffffffffffffffffffffffffffffff1673ffffffffffffffffffffffffffffffffffffffff163273ffffffffffffffffffffffffffffffffffffffff1614151561048c57600080fd5b600280548060010182816104a091906104f2565b9160005260206000209001600083909190916101000a81548173ffffffffffffffffffffffffffffffffffffffff021916908373ffffffffffffffffffffffffffffffffffffffff1602179055505050565b81548183558181151161051957818360005260206000209182019101610518919061051e565b5b505050565b61054091905b8082111561053c576000816000905550600101610524565b5090565b905600a165627a7a72305820e4d0864fc623c21fb4757ae2f2a92cfa2a0f764434bedc109938b3702cedab790029",
  "source": "pragma solidity ^0.4.9;\r\n\r\n// This document is part of the Lunyr coding challenge. If you would like to participate\r\n// please email support át lunyr döt cōm with a description of any bugs you find in this contract\r\n// including what the function should do, what it actually does, what are the consequences\r\n// of the bug (how to abuse it), and how to fix it. Happy Hacking\r\n// RTFM: https://solidity.readthedocs.io/en/develop/\r\n\r\n// (ʘ‿ʘ)(ʘ‿ʘ)(ʘ‿ʘ)\r\n\r\n// THIS CONTRACT CONTAINS BUGS - DO NOT USE\r\n\r\n// Bugs found thus far:\r\n\r\n// 1. var used instead of uint; All addresses stored after the 255th will be have their ether sent to the original 255 addresses when dispense() is called.\r\n// 2. Re-entrancy: Withdraw sends ether before detecting a failure, a contract can be designed to recursively call withdraw()\r\n// 3. tx.origin walks all the way up the call stack to find the originating owner of the transaction; a vulnerable user could interact with a malicious contract that then \r\n//    calls addShareholder however many times they want.\r\ncontract Ethemy {\r\n\r\n\r\n    /// Mapping of ether shares of the contract.\r\n    mapping(address => uint) shares;\r\n    address owner;\r\n    address[] shareholders;\r\n    event FailedSend(address, uint);\r\n\r\n    event ShareholderLength(uint256 _value);\r\n\r\n    function Ethemy() {\r\n        owner = msg.sender;\r\n    }\r\n\r\n    function () payable {\r\n        shares[msg.sender] = msg.value;\r\n    }\r\n\r\n    function getLength() constant returns (uint) {\r\n        return shareholders.length;\r\n    }\r\n\r\n    function addShareholder(address shareholder) {\r\n        require(tx.origin == owner);\r\n        shareholders.push(shareholder);\r\n    }\r\n\r\n    /// Withdraw your share.\r\n    function withdraw() {\r\n        if (msg.sender.send(shares[msg.sender])) {\r\n            shares[msg.sender] = 0;\r\n        } else {\r\n            FailedSend(msg.sender, shares[msg.sender]);\r\n        }\r\n    }\r\n\r\n    function dispense() {\r\n        require(msg.sender == owner);\r\n        address shareholder;\r\n        // Infinite loop since var i goes to 255 and wraps around\r\n        for (var i = 0; i < shareholders.length; i++) { \r\n            shareholder = shareholders[i];\r\n            uint sh = shares[shareholder];\r\n            shares[shareholder] = 0;\r\n            shareholder.send(sh);\r\n        }\r\n    }\r\n\r\n}",
  "sourcePath": "C:\\Sites\\eth\\ethemy\\contracts\\Ethemy.sol",
  "compiler": {
    "name": "solc",
    "version": "0.4.18+commit.9cf6e910.Emscripten.clang"
  },
  "schemaVersion": "1.0.1",
  "updatedAt": "2017-11-04T22:08:48.526Z"
}