{
  "contractName": "Ethemy",
  "abi": [
    {
      "constant": false,
      "inputs": [],
      "name": "dispense",
      "outputs": [],
      "payable": false,
      "stateMutability": "nonpayable",
      "type": "function"
    },
    {
      "constant": false,
      "inputs": [],
      "name": "withdraw",
      "outputs": [],
      "payable": false,
      "stateMutability": "nonpayable",
      "type": "function"
    },
    {
      "constant": false,
      "inputs": [
        {
          "name": "shareholder",
          "type": "address"
        }
      ],
      "name": "addShareholder",
      "outputs": [
        {
          "name": "",
          "type": "uint256"
        }
      ],
      "payable": false,
      "stateMutability": "nonpayable",
      "type": "function"
    },
    {
      "inputs": [
        {
          "name": "shareholder",
          "type": "address"
        }
      ],
      "payable": false,
      "stateMutability": "nonpayable",
      "type": "constructor",
      "constant": false,
      "name": "addShareholder",
      "outputs": [
        {
          "name": "",
          "type": "address"
        }
      ]
    },
    {
      "payable": true,
      "stateMutability": "payable",
      "type": "fallback",
      "constant": true,
      "inputs": [
        {
          "name": "",
          "type": "address"
        }
      ],
      "name": "shares",
      "outputs": [
        {
          "name": "",
          "type": "uint256"
        }
      ]
    },
    {
      "anonymous": false,
      "inputs": [
        {
          "indexed": false,
          "name": "",
          "type": "address"
        },
        {
          "indexed": false,
          "name": "",
          "type": "uint256"
        }
      ],
      "name": "FailedSend",
      "type": "event",
      "payable": true,
      "stateMutability": "payable",
      "constant": false,
      "outputs": []
    },
    {
      "payable": false,
      "stateMutability": "nonpayable",
      "type": "event",
      "inputs": [
        {
          "indexed": false,
          "name": "",
          "type": "address"
        },
        {
          "indexed": false,
          "name": "",
          "type": "uint256"
        }
      ],
      "anonymous": false,
      "name": "FailedSend"
    },
    {
      "anonymous": false,
      "inputs": [
        {
          "indexed": false,
          "name": "_value",
          "type": "uint256"
        },
        {
          "indexed": false,
          "name": "",
          "type": "uint256"
        }
      ],
      "name": "ShareholderLength",
      "type": "event",
      "payable": true,
      "stateMutability": "payable"
    },
    {
      "anonymous": false,
      "inputs": [
        {
          "indexed": false,
          "name": "",
          "type": "address"
        },
        {
          "indexed": false,
          "name": "",
          "type": "uint256"
        }
      ],
      "name": "FailedSend",
      "type": "event"
    }
  ],
  "bytecode": "0x6060604052341561000f57600080fd5b33600160006101000a81548173ffffffffffffffffffffffffffffffffffffffff021916908373ffffffffffffffffffffffffffffffffffffffff16021790555061052e8061005f6000396000f300606060405260043610610057576000357c0100000000000000000000000000000000000000000000000000000000900463ffffffff1680630adb1a9a1461009c5780633ccfd60b146100b1578063db29fe12146100c6575b346000803373ffffffffffffffffffffffffffffffffffffffff1673ffffffffffffffffffffffffffffffffffffffff16815260200190815260200160002081905550005b34156100a757600080fd5b6100af6100ff565b005b34156100bc57600080fd5b6100c4610282565b005b34156100d157600080fd5b6100fd600480803573ffffffffffffffffffffffffffffffffffffffff169060200190919050506103ef565b005b6000806000600160009054906101000a900473ffffffffffffffffffffffffffffffffffffffff1673ffffffffffffffffffffffffffffffffffffffff163373ffffffffffffffffffffffffffffffffffffffff1614151561016057600080fd5b600091505b6002805490508260ff16101561027d5760028260ff1681548110151561018757fe5b906000526020600020900160009054906101000a900473ffffffffffffffffffffffffffffffffffffffff1692506000808473ffffffffffffffffffffffffffffffffffffffff1673ffffffffffffffffffffffffffffffffffffffff16815260200190815260200160002054905060008060008573ffffffffffffffffffffffffffffffffffffffff1673ffffffffffffffffffffffffffffffffffffffff168152602001908152602001600020819055508273ffffffffffffffffffffffffffffffffffffffff166108fc829081150290604051600060405180830381858888f19350505050508180600101925050610165565b505050565b3373ffffffffffffffffffffffffffffffffffffffff166108fc6000803373ffffffffffffffffffffffffffffffffffffffff1673ffffffffffffffffffffffffffffffffffffffff168152602001908152602001600020549081150290604051600060405180830381858888f19350505050156103435760008060003373ffffffffffffffffffffffffffffffffffffffff1673ffffffffffffffffffffffffffffffffffffffff168152602001908152602001600020819055506103ed565b7f3d14263aec0db87097e504ee7aca5316e879b2cc7f3b29f9c62d40e9bae04cee336000803373ffffffffffffffffffffffffffffffffffffffff1673ffffffffffffffffffffffffffffffffffffffff16815260200190815260200160002054604051808373ffffffffffffffffffffffffffffffffffffffff1673ffffffffffffffffffffffffffffffffffffffff1681526020018281526020019250505060405180910390a15b565b600160009054906101000a900473ffffffffffffffffffffffffffffffffffffffff1673ffffffffffffffffffffffffffffffffffffffff163273ffffffffffffffffffffffffffffffffffffffff1614151561044b57600080fd5b6002805480600101828161045f91906104b1565b9160005260206000209001600083909190916101000a81548173ffffffffffffffffffffffffffffffffffffffff021916908373ffffffffffffffffffffffffffffffffffffffff1602179055505050565b8154818355818115116104d8578183600052602060002091820191016104d791906104dd565b5b505050565b6104ff91905b808211156104fb5760008160009055506001016104e3565b5090565b905600a165627a7a72305820dc1c8cb340fe984a0219cfb823a32f4ae35ff81af2bb301a8e7019d327ef26350029",
  "source": "pragma solidity ^0.4.9;\r\n\r\n// This document is part of the Lunyr coding challenge. If you would like to participate\r\n// please email support át lunyr döt cōm with a description of any bugs you find in this contract\r\n// including what the function should do, what it actually does, what are the consequences\r\n// of the bug (how to abuse it), and how to fix it. Happy Hacking\r\n// RTFM: https://solidity.readthedocs.io/en/develop/\r\n\r\n// (ʘ‿ʘ)(ʘ‿ʘ)(ʘ‿ʘ)\r\n\r\n// THIS CONTRACT CONTAINS BUGS - DO NOT USE\r\ncontract Ethemy {\r\n\r\n\r\n   /// Mapping of ether shares of the contract.\r\n   mapping(address => uint) shares;\r\n   address owner;\r\n   address[] shareholders;\r\n   event FailedSend(address, uint);\r\n\r\n   function Ethemy() {\r\n      owner = msg.sender;\r\n   }\r\n\r\n    function () payable {\r\n        // Shares balance is overridden every time a shareHolder sends money. \r\n        shares[msg.sender] = msg.value;\r\n        // Also, by not adding the sender to shareholders, dispense() will not \r\n        // dispense all shares back to all users who sent this contract money. \r\n    }\r\n\r\n    function addShareholder(address shareholder) {\r\n        // Using tx.origin exposes the contract to an owner impersonation attack. \r\n        // If the owner interacts with a malicious contract, the malicious contract could execute\r\n        // this function successfully (since tx.origin checks for transaction originator, not msg sender)\r\n        require(tx.origin == owner);\r\n        shareholders.push(shareholder);\r\n    }\r\n\r\n   /// Withdraw your share.\r\n    function withdraw() {\r\n        // By attempting a send in the conditional, this function is exposed to a re-entrancy attack\r\n        // A malicious user could recursively call this function, and drain the contract, \r\n        // before its shares are ever reset to 0.\r\n        if (msg.sender.send(shares[msg.sender])) {\r\n            shares[msg.sender] = 0;\r\n        } else {\r\n            FailedSend(msg.sender, shares[msg.sender]);\r\n        }\r\n    }\r\n\r\n   function dispense() {\r\n      require(msg.sender == owner);\r\n      address shareholder;\r\n      // var is equal to uint8, with a max val of 255. This may be intentional, \r\n      // But to avoid an infinite loop, an upper bound on shareholders size should be set \r\n      // to be less than 255. \r\n      for (var i = 0; i < shareholders.length; i++) {\r\n         shareholder = shareholders[i];\r\n         uint sh = shares[shareholder];\r\n         shares[shareholder] = 0;\r\n         shareholder.send(sh);\r\n      }\r\n   }\r\n\r\n}",
  "sourcePath": "C:\\Sites\\eth\\ethemy\\contracts\\Ethemy.sol",
  "compiler": {
    "name": "solc",
    "version": "0.4.18+commit.9cf6e910.Emscripten.clang"
  },
  "schemaVersion": "1.0.1",
  "updatedAt": "2017-11-09T23:38:22.813Z"
}