{
  "contractName": "Lunyr",
  "abi": [
    {
      "constant": false,
      "inputs": [],
      "name": "dispense",
      "outputs": [],
      "payable": false,
      "stateMutability": "nonpayable",
      "type": "function"
    },
    {
      "constant": false,
      "inputs": [
        {
          "name": "_addr",
          "type": "address"
        }
      ],
      "name": "addAddress",
      "outputs": [],
      "payable": false,
      "stateMutability": "nonpayable",
      "type": "function"
    },
    {
      "constant": false,
      "inputs": [],
      "name": "withdraw",
      "outputs": [],
      "payable": false,
      "stateMutability": "nonpayable",
      "type": "function"
    },
    {
      "constant": false,
      "inputs": [],
      "name": "kill",
      "outputs": [],
      "payable": false,
      "stateMutability": "nonpayable",
      "type": "function"
    },
    {
      "constant": false,
      "inputs": [],
      "name": "getAddresses",
      "outputs": [
        {
          "name": "",
          "type": "address[]"
        }
      ],
      "payable": false,
      "stateMutability": "nonpayable",
      "type": "function"
    },
    {
      "constant": true,
      "inputs": [],
      "name": "getLength",
      "outputs": [
        {
          "name": "",
          "type": "uint256"
        }
      ],
      "payable": false,
      "stateMutability": "view",
      "type": "function"
    },
    {
      "constant": false,
      "inputs": [
        {
          "name": "_addr",
          "type": "address"
        }
      ],
      "name": "getShares",
      "outputs": [
        {
          "name": "",
          "type": "uint256"
        }
      ],
      "payable": false,
      "stateMutability": "nonpayable",
      "type": "function"
    },
    {
      "inputs": [],
      "payable": false,
      "stateMutability": "nonpayable",
      "type": "constructor"
    },
    {
      "payable": true,
      "stateMutability": "payable",
      "type": "fallback"
    },
    {
      "anonymous": false,
      "inputs": [
        {
          "indexed": false,
          "name": "",
          "type": "address"
        },
        {
          "indexed": false,
          "name": "",
          "type": "uint256"
        }
      ],
      "name": "FailedSend",
      "type": "event"
    },
    {
      "anonymous": false,
      "inputs": [
        {
          "indexed": false,
          "name": "",
          "type": "bytes32"
        }
      ],
      "name": "FailedAddShareholder",
      "type": "event"
    }
  ],
  "bytecode": "0x6060604052341561000f57600080fd5b33600160006101000a81548173ffffffffffffffffffffffffffffffffffffffff021916908373ffffffffffffffffffffffffffffffffffffffff1602179055506109d28061005f6000396000f300606060405260043610610083576000357c0100000000000000000000000000000000000000000000000000000000900463ffffffff1680630adb1a9a146101c457806338eada1c146101d95780633ccfd60b1461021257806341c0e1b514610227578063a39fac121461023c578063be1c766b146102a6578063f04da65b146102cf575b60008060003373ffffffffffffffffffffffffffffffffffffffff1673ffffffffffffffffffffffffffffffffffffffff168152602001908152602001600020541480156100d6575060ff600280549050105b1561013f57600280548060010182816100ef9190610941565b9160005260206000209001600033909190916101000a81548173ffffffffffffffffffffffffffffffffffffffff021916908373ffffffffffffffffffffffffffffffffffffffff160217905550505b346000803373ffffffffffffffffffffffffffffffffffffffff1673ffffffffffffffffffffffffffffffffffffffff16815260200190815260200160002054016000803373ffffffffffffffffffffffffffffffffffffffff1673ffffffffffffffffffffffffffffffffffffffff16815260200190815260200160002081905550005b34156101cf57600080fd5b6101d761031c565b005b34156101e457600080fd5b610210600480803573ffffffffffffffffffffffffffffffffffffffff1690602001909190505061049f565b005b341561021d57600080fd5b610225610610565b005b341561023257600080fd5b61023a6107c5565b005b341561024757600080fd5b61024f610858565b6040518080602001828103825283818151815260200191508051906020019060200280838360005b83811015610292578082015181840152602081019050610277565b505050509050019250505060405180910390f35b34156102b157600080fd5b6102b96108ec565b6040518082815260200191505060405180910390f35b34156102da57600080fd5b610306600480803573ffffffffffffffffffffffffffffffffffffffff169060200190919050506108f9565b6040518082815260200191505060405180910390f35b6000806000600160009054906101000a900473ffffffffffffffffffffffffffffffffffffffff1673ffffffffffffffffffffffffffffffffffffffff163373ffffffffffffffffffffffffffffffffffffffff1614151561037d57600080fd5b600091505b6002805490508260ff16101561049a5760028260ff168154811015156103a457fe5b906000526020600020900160009054906101000a900473ffffffffffffffffffffffffffffffffffffffff1692506000808473ffffffffffffffffffffffffffffffffffffffff1673ffffffffffffffffffffffffffffffffffffffff16815260200190815260200160002054905060008060008573ffffffffffffffffffffffffffffffffffffffff1673ffffffffffffffffffffffffffffffffffffffff168152602001908152602001600020819055508273ffffffffffffffffffffffffffffffffffffffff166108fc829081150290604051600060405180830381858888f19350505050508180600101925050610382565b505050565b600160009054906101000a900473ffffffffffffffffffffffffffffffffffffffff1673ffffffffffffffffffffffffffffffffffffffff163373ffffffffffffffffffffffffffffffffffffffff161415156104fb57600080fd5b60ff60028054905010156105b5576002805480600101828161051d9190610941565b9160005260206000209001600083909190916101000a81548173ffffffffffffffffffffffffffffffffffffffff021916908373ffffffffffffffffffffffffffffffffffffffff1602179055505060016000808373ffffffffffffffffffffffffffffffffffffffff1673ffffffffffffffffffffffffffffffffffffffff1681526020019081526020016000208190555061060d565b7f69d0bfbda23c6e81584c56b6d155e720349c28bdc1b646d212007093abc6f5ba60405180807f4d41585f5348415245484f4c4445525300000000000000000000000000000000815250602001905060405180910390a15b50565b6000806000803373ffffffffffffffffffffffffffffffffffffffff1673ffffffffffffffffffffffffffffffffffffffff168152602001908152602001600020541115610718576000803373ffffffffffffffffffffffffffffffffffffffff1673ffffffffffffffffffffffffffffffffffffffff16815260200190815260200160002054905060008060003373ffffffffffffffffffffffffffffffffffffffff1673ffffffffffffffffffffffffffffffffffffffff168152602001908152602001600020819055503373ffffffffffffffffffffffffffffffffffffffff166108fc829081150290604051600060405180830381858888f19350505050506107c2565b7f3d14263aec0db87097e504ee7aca5316e879b2cc7f3b29f9c62d40e9bae04cee336000803373ffffffffffffffffffffffffffffffffffffffff1673ffffffffffffffffffffffffffffffffffffffff16815260200190815260200160002054604051808373ffffffffffffffffffffffffffffffffffffffff1673ffffffffffffffffffffffffffffffffffffffff1681526020018281526020019250505060405180910390a15b50565b600160009054906101000a900473ffffffffffffffffffffffffffffffffffffffff1673ffffffffffffffffffffffffffffffffffffffff163373ffffffffffffffffffffffffffffffffffffffff16141561085657600160009054906101000a900473ffffffffffffffffffffffffffffffffffffffff1673ffffffffffffffffffffffffffffffffffffffff16ff5b565b61086061096d565b60028054806020026020016040519081016040528092919081815260200182805480156108e257602002820191906000526020600020905b8160009054906101000a900473ffffffffffffffffffffffffffffffffffffffff1673ffffffffffffffffffffffffffffffffffffffff1681526020019060010190808311610898575b5050505050905090565b6000600280549050905090565b60008060008373ffffffffffffffffffffffffffffffffffffffff1673ffffffffffffffffffffffffffffffffffffffff168152602001908152602001600020549050919050565b815481835581811511610968578183600052602060002091820191016109679190610981565b5b505050565b602060405190810160405280600081525090565b6109a391905b8082111561099f576000816000905550600101610987565b5090565b905600a165627a7a7230582039b986b44a19c9820705f7d0b88833b6cf7a8b6b71a28486b5240e5e94105be10029",
  "source": "// This contract is a response to the Lunyr coding challenge. \r\n// Written by:  Thomas Shallenberger (Twitter, Github, Facebook username: valkn0t)\r\n// Date:        11/4/2017\r\n// In here, I go over the bugs and additional features I added as I built this contract to be\r\n// interfaced with by a React.js front end. All features were tested using testrpc. \r\n// With additional time I'd test on Ropsten. \r\n\r\n\r\npragma solidity ^0.4.9;\r\n\r\n\r\ncontract Lunyr {\r\n\r\n\r\n    // Added an upper bound to the contract with regard to shareholder addresses.\r\n    mapping(address => uint) shares;\r\n    address owner;\r\n    address[] shareholders;\r\n    // Defining an upper bound on shareholder amount due to gas costs of dispense(), \r\n    // And because without it using a var (uint8) would result in an infinite loop once \r\n    // shareholders.length went > 255\r\n    uint constant MAX_SHAREHOLDERS = 255;\r\n\r\n    event FailedSend(address, uint);\r\n\r\n    event FailedAddShareholder(bytes32);\r\n\r\n    function Lunyr() {\r\n        owner = msg.sender;\r\n    }\r\n\r\n    // All payments will be added to balance and share balance stored\r\n    function () payable {\r\n        // If sender is unintialized, add them to shareholders\r\n        // WARNING: Duplicate shareholders may be added if they withdraw their funds and then send money back in again. \r\n        // Still coming up with a solution to this. \r\n        if (shares[msg.sender] == 0 && shareholders.length < MAX_SHAREHOLDERS) {\r\n            shareholders.push(msg.sender);\r\n        }\r\n        // Add the sent payment to an existing balance \r\n        shares[msg.sender] = shares[msg.sender] + msg.value;\r\n    }\r\n\r\n    // All smart contracts should have a selfdestruct kill switch\r\n    function kill() {\r\n        if (msg.sender == owner) {\r\n            selfdestruct(owner);\r\n        }\r\n    }\r\n\r\n    // We require that the msg sender is the owner, and check to make sure\r\n    // we are below our max shareholder threshold before attempting to add them\r\n    // We also initialize a shareholder with 1 Wei so that when they send money their address isn't duplicated. \r\n    // Also, not sure why only the owner can set shareholders if anyone can send money to the contract. \r\n    // Requirements and definitions definitely need to be fleshed out with the customer before development continues.\r\n    function addAddress(address _addr) {\r\n        require(msg.sender == owner);\r\n        if (shareholders.length < MAX_SHAREHOLDERS) {\r\n            shareholders.push(_addr);\r\n            shares[_addr] = 1;\r\n        } else {\r\n            FailedAddShareholder(\"MAX_SHAREHOLDERS\");\r\n        }\r\n    }\r\n    // Removed the re-entrancy attack in withdraw. \r\n    function withdraw() {\r\n        if (shares[msg.sender] > 0) {\r\n            uint sh = shares[msg.sender];\r\n            shares[msg.sender] = 0;\r\n            msg.sender.send(sh);\r\n        } else {\r\n            FailedSend(msg.sender, shares[msg.sender]);\r\n        }\r\n    }\r\n\r\n    // By implementing a shareholder threshold, we can keep the code below.\r\n    function dispense() {\r\n        require(msg.sender == owner);\r\n        address shareholder;\r\n        for (var i = 0; i < shareholders.length; i++) { \r\n            shareholder = shareholders[i];\r\n            uint sh = shares[shareholder];\r\n            shares[shareholder] = 0;\r\n            shareholder.send(sh);\r\n        }\r\n    }\r\n\r\n    // Added some getters for pertinent information not available in the original contract\r\n    // These were immensely helpful when building the React.js interface\r\n    function getLength() constant returns (uint) {\r\n        return shareholders.length;\r\n    }\r\n\r\n    function getAddresses() external returns (address[]) {\r\n        return shareholders;\r\n    }\r\n\r\n    function getShares(address _addr) external returns (uint) {\r\n        return shares[_addr];\r\n    }\r\n\r\n}",
  "sourcePath": "C:\\Sites\\eth\\ethemy\\contracts\\Lunyr.sol",
  "compiler": {
    "name": "solc",
    "version": "0.4.18+commit.9cf6e910.Emscripten.clang"
  },
  "schemaVersion": "1.0.1",
  "updatedAt": "2017-11-09T23:38:22.813Z"
}